{
  "contractName": "SupplyChain",
  "abi": [
    {
      "constant": false,
      "inputs": [
        {
          "name": "account",
          "type": "address"
        }
      ],
      "name": "addConsumer",
      "outputs": [],
      "payable": false,
      "stateMutability": "nonpayable",
      "type": "function"
    },
    {
      "constant": true,
      "inputs": [
        {
          "name": "account",
          "type": "address"
        }
      ],
      "name": "isRetailer",
      "outputs": [
        {
          "name": "",
          "type": "bool"
        }
      ],
      "payable": false,
      "stateMutability": "view",
      "type": "function"
    },
    {
      "constant": false,
      "inputs": [],
      "name": "renounceConsumer",
      "outputs": [],
      "payable": false,
      "stateMutability": "nonpayable",
      "type": "function"
    },
    {
      "constant": false,
      "inputs": [],
      "name": "renounceDistributor",
      "outputs": [],
      "payable": false,
      "stateMutability": "nonpayable",
      "type": "function"
    },
    {
      "constant": false,
      "inputs": [],
      "name": "renounceOwnership",
      "outputs": [],
      "payable": false,
      "stateMutability": "nonpayable",
      "type": "function"
    },
    {
      "constant": false,
      "inputs": [
        {
          "name": "account",
          "type": "address"
        }
      ],
      "name": "addDistributor",
      "outputs": [],
      "payable": false,
      "stateMutability": "nonpayable",
      "type": "function"
    },
    {
      "constant": false,
      "inputs": [
        {
          "name": "account",
          "type": "address"
        }
      ],
      "name": "addFarmer",
      "outputs": [],
      "payable": false,
      "stateMutability": "nonpayable",
      "type": "function"
    },
    {
      "constant": false,
      "inputs": [],
      "name": "renounceFarmer",
      "outputs": [],
      "payable": false,
      "stateMutability": "nonpayable",
      "type": "function"
    },
    {
      "constant": true,
      "inputs": [
        {
          "name": "account",
          "type": "address"
        }
      ],
      "name": "isConsumer",
      "outputs": [
        {
          "name": "",
          "type": "bool"
        }
      ],
      "payable": false,
      "stateMutability": "view",
      "type": "function"
    },
    {
      "constant": true,
      "inputs": [],
      "name": "owner",
      "outputs": [
        {
          "name": "",
          "type": "address"
        }
      ],
      "payable": false,
      "stateMutability": "view",
      "type": "function"
    },
    {
      "constant": false,
      "inputs": [
        {
          "name": "account",
          "type": "address"
        }
      ],
      "name": "addRetailer",
      "outputs": [],
      "payable": false,
      "stateMutability": "nonpayable",
      "type": "function"
    },
    {
      "constant": true,
      "inputs": [
        {
          "name": "account",
          "type": "address"
        }
      ],
      "name": "isDistributor",
      "outputs": [
        {
          "name": "",
          "type": "bool"
        }
      ],
      "payable": false,
      "stateMutability": "view",
      "type": "function"
    },
    {
      "constant": true,
      "inputs": [],
      "name": "isOwner",
      "outputs": [
        {
          "name": "",
          "type": "bool"
        }
      ],
      "payable": false,
      "stateMutability": "view",
      "type": "function"
    },
    {
      "constant": true,
      "inputs": [
        {
          "name": "account",
          "type": "address"
        }
      ],
      "name": "isFarmer",
      "outputs": [
        {
          "name": "",
          "type": "bool"
        }
      ],
      "payable": false,
      "stateMutability": "view",
      "type": "function"
    },
    {
      "constant": false,
      "inputs": [],
      "name": "renounceRetailer",
      "outputs": [],
      "payable": false,
      "stateMutability": "nonpayable",
      "type": "function"
    },
    {
      "constant": false,
      "inputs": [
        {
          "name": "newOwner",
          "type": "address"
        }
      ],
      "name": "transferOwnership",
      "outputs": [],
      "payable": false,
      "stateMutability": "nonpayable",
      "type": "function"
    },
    {
      "inputs": [],
      "payable": true,
      "stateMutability": "payable",
      "type": "constructor"
    },
    {
      "anonymous": false,
      "inputs": [
        {
          "indexed": false,
          "name": "upc",
          "type": "uint256"
        }
      ],
      "name": "Harvested",
      "type": "event"
    },
    {
      "anonymous": false,
      "inputs": [
        {
          "indexed": false,
          "name": "upc",
          "type": "uint256"
        }
      ],
      "name": "Processed",
      "type": "event"
    },
    {
      "anonymous": false,
      "inputs": [
        {
          "indexed": false,
          "name": "upc",
          "type": "uint256"
        }
      ],
      "name": "Packed",
      "type": "event"
    },
    {
      "anonymous": false,
      "inputs": [
        {
          "indexed": false,
          "name": "upc",
          "type": "uint256"
        }
      ],
      "name": "ForSale",
      "type": "event"
    },
    {
      "anonymous": false,
      "inputs": [
        {
          "indexed": false,
          "name": "upc",
          "type": "uint256"
        }
      ],
      "name": "Sold",
      "type": "event"
    },
    {
      "anonymous": false,
      "inputs": [
        {
          "indexed": false,
          "name": "upc",
          "type": "uint256"
        }
      ],
      "name": "Shipped",
      "type": "event"
    },
    {
      "anonymous": false,
      "inputs": [
        {
          "indexed": false,
          "name": "upc",
          "type": "uint256"
        }
      ],
      "name": "Received",
      "type": "event"
    },
    {
      "anonymous": false,
      "inputs": [
        {
          "indexed": false,
          "name": "upc",
          "type": "uint256"
        }
      ],
      "name": "Purchased",
      "type": "event"
    },
    {
      "anonymous": false,
      "inputs": [
        {
          "indexed": true,
          "name": "account",
          "type": "address"
        }
      ],
      "name": "FarmerAdded",
      "type": "event"
    },
    {
      "anonymous": false,
      "inputs": [
        {
          "indexed": true,
          "name": "account",
          "type": "address"
        }
      ],
      "name": "FarmerRemoved",
      "type": "event"
    },
    {
      "anonymous": false,
      "inputs": [
        {
          "indexed": true,
          "name": "account",
          "type": "address"
        }
      ],
      "name": "DistributorAdded",
      "type": "event"
    },
    {
      "anonymous": false,
      "inputs": [
        {
          "indexed": true,
          "name": "account",
          "type": "address"
        }
      ],
      "name": "DistributorRemoved",
      "type": "event"
    },
    {
      "anonymous": false,
      "inputs": [
        {
          "indexed": true,
          "name": "account",
          "type": "address"
        }
      ],
      "name": "RetailerAdded",
      "type": "event"
    },
    {
      "anonymous": false,
      "inputs": [
        {
          "indexed": true,
          "name": "account",
          "type": "address"
        }
      ],
      "name": "RetailerRemoved",
      "type": "event"
    },
    {
      "anonymous": false,
      "inputs": [
        {
          "indexed": true,
          "name": "account",
          "type": "address"
        }
      ],
      "name": "ConsumerAdded",
      "type": "event"
    },
    {
      "anonymous": false,
      "inputs": [
        {
          "indexed": true,
          "name": "account",
          "type": "address"
        }
      ],
      "name": "ConsumerRemoved",
      "type": "event"
    },
    {
      "anonymous": false,
      "inputs": [
        {
          "indexed": true,
          "name": "oldOwner",
          "type": "address"
        },
        {
          "indexed": true,
          "name": "newOwner",
          "type": "address"
        }
      ],
      "name": "TransferOwnership",
      "type": "event"
    },
    {
      "constant": false,
      "inputs": [
        {
          "name": "_upc",
          "type": "uint256"
        },
        {
          "name": "_originFarmerID",
          "type": "address"
        },
        {
          "name": "_originFarmName",
          "type": "string"
        },
        {
          "name": "_originFarmInformation",
          "type": "string"
        },
        {
          "name": "_originFarmLatitude",
          "type": "string"
        },
        {
          "name": "_originFarmLongitude",
          "type": "string"
        },
        {
          "name": "_productNotes",
          "type": "string"
        }
      ],
      "name": "harvestItem",
      "outputs": [],
      "payable": false,
      "stateMutability": "nonpayable",
      "type": "function"
    },
    {
      "constant": false,
      "inputs": [
        {
          "name": "_upc",
          "type": "uint256"
        }
      ],
      "name": "processItem",
      "outputs": [],
      "payable": false,
      "stateMutability": "nonpayable",
      "type": "function"
    },
    {
      "constant": false,
      "inputs": [
        {
          "name": "_upc",
          "type": "uint256"
        }
      ],
      "name": "packItem",
      "outputs": [],
      "payable": false,
      "stateMutability": "nonpayable",
      "type": "function"
    },
    {
      "constant": false,
      "inputs": [
        {
          "name": "_upc",
          "type": "uint256"
        },
        {
          "name": "_price",
          "type": "uint256"
        }
      ],
      "name": "sellItem",
      "outputs": [],
      "payable": false,
      "stateMutability": "nonpayable",
      "type": "function"
    },
    {
      "constant": false,
      "inputs": [
        {
          "name": "_upc",
          "type": "uint256"
        }
      ],
      "name": "buyItem",
      "outputs": [],
      "payable": true,
      "stateMutability": "payable",
      "type": "function"
    },
    {
      "constant": false,
      "inputs": [
        {
          "name": "_upc",
          "type": "uint256"
        }
      ],
      "name": "shipItem",
      "outputs": [],
      "payable": false,
      "stateMutability": "nonpayable",
      "type": "function"
    },
    {
      "constant": false,
      "inputs": [
        {
          "name": "_upc",
          "type": "uint256"
        }
      ],
      "name": "receiveItem",
      "outputs": [],
      "payable": false,
      "stateMutability": "nonpayable",
      "type": "function"
    },
    {
      "constant": false,
      "inputs": [
        {
          "name": "_upc",
          "type": "uint256"
        }
      ],
      "name": "purchaseItem",
      "outputs": [],
      "payable": false,
      "stateMutability": "nonpayable",
      "type": "function"
    },
    {
      "constant": true,
      "inputs": [
        {
          "name": "_upc",
          "type": "uint256"
        }
      ],
      "name": "fetchItemBufferOne",
      "outputs": [
        {
          "name": "itemSKU",
          "type": "uint256"
        },
        {
          "name": "itemUPC",
          "type": "uint256"
        },
        {
          "name": "ownerID",
          "type": "address"
        },
        {
          "name": "originFarmerID",
          "type": "address"
        },
        {
          "name": "originFarmName",
          "type": "string"
        },
        {
          "name": "originFarmInformation",
          "type": "string"
        },
        {
          "name": "originFarmLatitude",
          "type": "string"
        },
        {
          "name": "originFarmLongitude",
          "type": "string"
        }
      ],
      "payable": false,
      "stateMutability": "view",
      "type": "function"
    },
    {
      "constant": true,
      "inputs": [
        {
          "name": "_upc",
          "type": "uint256"
        }
      ],
      "name": "fetchItemBufferTwo",
      "outputs": [
        {
          "name": "itemSKU",
          "type": "uint256"
        },
        {
          "name": "itemUPC",
          "type": "uint256"
        },
        {
          "name": "productID",
          "type": "uint256"
        },
        {
          "name": "productNotes",
          "type": "string"
        },
        {
          "name": "productPrice",
          "type": "uint256"
        },
        {
          "name": "itemState",
          "type": "uint256"
        },
        {
          "name": "distributorID",
          "type": "address"
        },
        {
          "name": "retailerID",
          "type": "address"
        },
        {
          "name": "consumerID",
          "type": "address"
        }
      ],
      "payable": false,
      "stateMutability": "view",
      "type": "function"
    }
  ],
  "bytecode": "0x6080604052336000806101000a81548173ffffffffffffffffffffffffffffffffffffffff021916908373ffffffffffffffffffffffffffffffffffffffff1602179055506000809054906101000a900473ffffffffffffffffffffffffffffffffffffffff1673ffffffffffffffffffffffffffffffffffffffff16600073ffffffffffffffffffffffffffffffffffffffff167f5c486528ec3e3f0ea91181cff8116f02bfa350e03b8b6f12e00765adbb5af85c60405160405180910390a3620000da336200013e640100000000026401000000009004565b620000f433620001a5640100000000026401000000009004565b6200010e336200020c640100000000026401000000009004565b620001283362000273640100000000026401000000009004565b6001600681905550600160058190555062000435565b6200015f600182620002dd640100000000026200264b176401000000009004565b8073ffffffffffffffffffffffffffffffffffffffff167f28b26e7a3d20aedbc5f8f2ebf7da671c0491723a2b78f47a097b0e46dee0714260405160405180910390a250565b620001c6600282620002dd640100000000026200264b176401000000009004565b8073ffffffffffffffffffffffffffffffffffffffff167f71ae26cad02663e3d92efd6ec56031a80d74a20c0ab4183faa8bf262261c9baa60405160405180910390a250565b6200022d600382620002dd640100000000026200264b176401000000009004565b8073ffffffffffffffffffffffffffffffffffffffff167fddbf200aa634dc3fb81cfd68583dd1040d1c751d335e1d86b631bde3e977fea860405160405180910390a250565b62000297816004620002dd640100000000026200264b179091906401000000009004565b8073ffffffffffffffffffffffffffffffffffffffff167f2e0ded4123377a3c2bc9a26f1717655a129e2f20752924d42e730ec89c83dbd060405160405180910390a250565b600073ffffffffffffffffffffffffffffffffffffffff168173ffffffffffffffffffffffffffffffffffffffff16141515156200031a57600080fd5b620003358282620003a0640100000000026401000000009004565b1515156200034257600080fd5b60018260000160008373ffffffffffffffffffffffffffffffffffffffff1673ffffffffffffffffffffffffffffffffffffffff16815260200190815260200160002060006101000a81548160ff0219169083151502179055505050565b60008073ffffffffffffffffffffffffffffffffffffffff168273ffffffffffffffffffffffffffffffffffffffff1614151515620003de57600080fd5b8260000160008373ffffffffffffffffffffffffffffffffffffffff1673ffffffffffffffffffffffffffffffffffffffff16815260200190815260200160002060009054906101000a900460ff16905092915050565b61287b80620004456000396000f300608060405260043610610154576000357c0100000000000000000000000000000000000000000000000000000000900463ffffffff168063112940f9146101595780632d9235611461019c57806349dae766146101d35780635da09b881461020057806361e6982d1461025b578063644241db1461027257806366225ff914610289578063715018a6146103eb5780637250e2241461040257806377c459131461044557806380c3f96d146106a357806380fc0ce4146106e6578063834ff739146106fd5780638da5cb5b146107585780638ec4f505146107af5780638f0c86fa146107f25780638f32d59b1461084d578063a26be9991461087c578063b9429069146108a9578063bdd8a6a814610904578063d38ea5bf14610aaf578063db0e6a2f14610adc578063e7fb74c714610af3578063f2fde38b14610b13578063f30fc48014610b56578063f61c899a14610b83575b600080fd5b34801561016557600080fd5b5061019a600480360381019080803573ffffffffffffffffffffffffffffffffffffffff169060200190929190505050610bb0565b005b3480156101a857600080fd5b506101d16004803603810190808035906020019092919080359060200190929190505050610bd0565b005b3480156101df57600080fd5b506101fe60048036038101908080359060200190929190505050610d1a565b005b34801561020c57600080fd5b50610241600480360381019080803573ffffffffffffffffffffffffffffffffffffffff169060200190929190505050610e48565b604051808215151515815260200191505060405180910390f35b34801561026757600080fd5b50610270610e5c565b005b34801561027e57600080fd5b50610287610e67565b005b34801561029557600080fd5b506102b460048036038101908080359060200190929190505050610e72565b604051808a8152602001898152602001888152602001806020018781526020018681526020018573ffffffffffffffffffffffffffffffffffffffff1673ffffffffffffffffffffffffffffffffffffffff1681526020018473ffffffffffffffffffffffffffffffffffffffff1673ffffffffffffffffffffffffffffffffffffffff1681526020018373ffffffffffffffffffffffffffffffffffffffff1673ffffffffffffffffffffffffffffffffffffffff168152602001828103825288818151815260200191508051906020019080838360005b838110156103a857808201518184015260208101905061038d565b50505050905090810190601f1680156103d55780820380516001836020036101000a031916815260200191505b509a505050505050505050505060405180910390f35b3480156103f757600080fd5b5061040061109a565b005b34801561040e57600080fd5b50610443600480360381019080803573ffffffffffffffffffffffffffffffffffffffff16906020019092919050505061119a565b005b34801561045157600080fd5b50610470600480360381019080803590602001909291905050506111ba565b604051808981526020018881526020018773ffffffffffffffffffffffffffffffffffffffff1673ffffffffffffffffffffffffffffffffffffffff1681526020018673ffffffffffffffffffffffffffffffffffffffff1673ffffffffffffffffffffffffffffffffffffffff16815260200180602001806020018060200180602001858103855289818151815260200191508051906020019080838360005b8381101561052c578082015181840152602081019050610511565b50505050905090810190601f1680156105595780820380516001836020036101000a031916815260200191505b50858103845288818151815260200191508051906020019080838360005b83811015610592578082015181840152602081019050610577565b50505050905090810190601f1680156105bf5780820380516001836020036101000a031916815260200191505b50858103835287818151815260200191508051906020019080838360005b838110156105f85780820151818401526020810190506105dd565b50505050905090810190601f1680156106255780820380516001836020036101000a031916815260200191505b50858103825286818151815260200191508051906020019080838360005b8381101561065e578082015181840152602081019050610643565b50505050905090810190601f16801561068b5780820380516001836020036101000a031916815260200191505b509c5050505050505050505050505060405180910390f35b3480156106af57600080fd5b506106e4600480360381019080803573ffffffffffffffffffffffffffffffffffffffff169060200190929190505050611551565b005b3480156106f257600080fd5b506106fb611571565b005b34801561070957600080fd5b5061073e600480360381019080803573ffffffffffffffffffffffffffffffffffffffff16906020019092919050505061157c565b604051808215151515815260200191505060405180910390f35b34801561076457600080fd5b5061076d611590565b604051808273ffffffffffffffffffffffffffffffffffffffff1673ffffffffffffffffffffffffffffffffffffffff16815260200191505060405180910390f35b3480156107bb57600080fd5b506107f0600480360381019080803573ffffffffffffffffffffffffffffffffffffffff1690602001909291905050506115b9565b005b3480156107fe57600080fd5b50610833600480360381019080803573ffffffffffffffffffffffffffffffffffffffff1690602001909291905050506115d9565b604051808215151515815260200191505060405180910390f35b34801561085957600080fd5b506108626115ed565b604051808215151515815260200191505060405180910390f35b34801561088857600080fd5b506108a760048036038101908080359060200190929190505050611644565b005b3480156108b557600080fd5b506108ea600480360381019080803573ffffffffffffffffffffffffffffffffffffffff1690602001909291905050506117aa565b604051808215151515815260200191505060405180910390f35b34801561091057600080fd5b50610aad60048036038101908080359060200190929190803573ffffffffffffffffffffffffffffffffffffffff169060200190929190803590602001908201803590602001908080601f0160208091040260200160405190810160405280939291908181526020018383808284378201915050505050509192919290803590602001908201803590602001908080601f0160208091040260200160405190810160405280939291908181526020018383808284378201915050505050509192919290803590602001908201803590602001908080601f0160208091040260200160405190810160405280939291908181526020018383808284378201915050505050509192919290803590602001908201803590602001908080601f0160208091040260200160405190810160405280939291908181526020018383808284378201915050505050509192919290803590602001908201803590602001908080601f01602080910402602001604051908101604052809392919081815260200183838082843782019150505050505091929192905050506117c7565b005b348015610abb57600080fd5b50610ada60048036038101908080359060200190929190505050611b5e565b005b348015610ae857600080fd5b50610af1611cc3565b005b610b1160048036038101908080359060200190929190505050611cce565b005b348015610b1f57600080fd5b50610b54600480360381019080803573ffffffffffffffffffffffffffffffffffffffff169060200190929190505050611f7a565b005b348015610b6257600080fd5b50610b8160048036038101908080359060200190929190505050611fc7565b005b348015610b8f57600080fd5b50610bae600480360381019080803590602001909291905050506120f5565b005b610bb93361157c565b1515610bc457600080fd5b610bcd81612223565b50565b8160026007811115610bde57fe5b60076000838152602001908152602001600020600b0160009054906101000a900460ff166007811115610c0d57fe5b141515610c1957600080fd5b6007600084815260200190815260200160002060030160009054906101000a900473ffffffffffffffffffffffffffffffffffffffff168073ffffffffffffffffffffffffffffffffffffffff163373ffffffffffffffffffffffffffffffffffffffff16141515610c8a57600080fd5b600360076000868152602001908152602001600020600b0160006101000a81548160ff02191690836007811115610cbd57fe5b02179055508260076000868152602001908152602001600020600a01819055507fa96ae0fc3224ebd79eebfe54bd130cc9cb94416cddd1f2386115e00b72532468846040518082815260200191505060405180910390a150505050565b8060006007811115610d2857fe5b60076000838152602001908152602001600020600b0160009054906101000a900460ff166007811115610d5757fe5b141515610d6357600080fd5b6007600083815260200190815260200160002060030160009054906101000a900473ffffffffffffffffffffffffffffffffffffffff168073ffffffffffffffffffffffffffffffffffffffff163373ffffffffffffffffffffffffffffffffffffffff16141515610dd457600080fd5b600160076000858152602001908152602001600020600b0160006101000a81548160ff02191690836007811115610e0757fe5b02179055507f5afe3b1bf87069693c075da5c22a98d63d1aef98a30dbbe538d0781a98b77ee5836040518082815260200191505060405180910390a1505050565b6000610e55600283612274565b9050919050565b610e6533612308565b565b610e7033612359565b565b600080600060606000806000806000600760008b8152602001908152602001600020600001549850600760008b8152602001908152602001600020600101549750600760008b8152602001908152602001600020600801549650600760008b81526020019081526020016000206009018054600181600116156101000203166002900480601f016020809104026020016040519081016040528092919081815260200182805460018160011615610100020316600290048015610f765780601f10610f4b57610100808354040283529160200191610f76565b820191906000526020600020905b815481529060010190602001808311610f5957829003601f168201915b50505050509550600760008b8152602001908152602001600020600a01549450600760008b8152602001908152602001600020600b0160009054906101000a900460ff166007811115610fc557fe5b9350600760008b8152602001908152602001600020600b0160019054906101000a900473ffffffffffffffffffffffffffffffffffffffff169250600760008b8152602001908152602001600020600c0160009054906101000a900473ffffffffffffffffffffffffffffffffffffffff169150600760008b8152602001908152602001600020600d0160009054906101000a900473ffffffffffffffffffffffffffffffffffffffff1690508888888888888888889850985098509850985098509850985098509193959799909294969850565b6110a2611590565b73ffffffffffffffffffffffffffffffffffffffff163373ffffffffffffffffffffffffffffffffffffffff161415156110db57600080fd5b600073ffffffffffffffffffffffffffffffffffffffff166000809054906101000a900473ffffffffffffffffffffffffffffffffffffffff1673ffffffffffffffffffffffffffffffffffffffff167f5c486528ec3e3f0ea91181cff8116f02bfa350e03b8b6f12e00765adbb5af85c60405160405180910390a360008060006101000a81548173ffffffffffffffffffffffffffffffffffffffff021916908373ffffffffffffffffffffffffffffffffffffffff160217905550565b6111a3336115d9565b15156111ae57600080fd5b6111b7816123aa565b50565b600080600080606080606080600760008a8152602001908152602001600020600001549750600760008a8152602001908152602001600020600101549650600760008a815260200190815260200160002060020160009054906101000a900473ffffffffffffffffffffffffffffffffffffffff169550600760008a815260200190815260200160002060030160009054906101000a900473ffffffffffffffffffffffffffffffffffffffff169450600760008a81526020019081526020016000206004018054600181600116156101000203166002900480601f0160208091040260200160405190810160405280929190818152602001828054600181600116156101000203166002900480156113145780601f106112e957610100808354040283529160200191611314565b820191906000526020600020905b8154815290600101906020018083116112f757829003601f168201915b50505050509350600760008a81526020019081526020016000206005018054600181600116156101000203166002900480601f0160208091040260200160405190810160405280929190818152602001828054600181600116156101000203166002900480156113c55780601f1061139a576101008083540402835291602001916113c5565b820191906000526020600020905b8154815290600101906020018083116113a857829003601f168201915b50505050509250600760008a81526020019081526020016000206006018054600181600116156101000203166002900480601f0160208091040260200160405190810160405280929190818152602001828054600181600116156101000203166002900480156114765780601f1061144b57610100808354040283529160200191611476565b820191906000526020600020905b81548152906001019060200180831161145957829003601f168201915b50505050509150600760008a81526020019081526020016000206007018054600181600116156101000203166002900480601f0160208091040260200160405190810160405280929190818152602001828054600181600116156101000203166002900480156115275780601f106114fc57610100808354040283529160200191611527565b820191906000526020600020905b81548152906001019060200180831161150a57829003601f168201915b50505050509050878787878787878797509750975097509750975097509750919395975091939597565b61155a336117aa565b151561156557600080fd5b61156e816123fb565b50565b61157a33612455565b565b6000611589600183612274565b9050919050565b60008060009054906101000a900473ffffffffffffffffffffffffffffffffffffffff16905090565b6115c233610e48565b15156115cd57600080fd5b6115d6816124af565b50565b60006115e6600383612274565b9050919050565b60008060009054906101000a900473ffffffffffffffffffffffffffffffffffffffff1673ffffffffffffffffffffffffffffffffffffffff163373ffffffffffffffffffffffffffffffffffffffff1614905090565b806005600781111561165257fe5b60076000838152602001908152602001600020600b0160009054906101000a900460ff16600781111561168157fe5b14151561168d57600080fd5b336007600084815260200190815260200160002060020160006101000a81548173ffffffffffffffffffffffffffffffffffffffff021916908373ffffffffffffffffffffffffffffffffffffffff1602179055503360076000848152602001908152602001600020600c0160006101000a81548173ffffffffffffffffffffffffffffffffffffffff021916908373ffffffffffffffffffffffffffffffffffffffff160217905550600660076000848152602001908152602001600020600b0160006101000a81548160ff0219169083600781111561176a57fe5b02179055507fa8142743f8f70a4c26f3691cf4ed59718381fb2f18070ec52be1f1022d855557826040518082815260200191505060405180910390a15050565b60006117c082600461227490919063ffffffff16565b9050919050565b6101e06040519081016040528060065481526020018881526020018773ffffffffffffffffffffffffffffffffffffffff1681526020018773ffffffffffffffffffffffffffffffffffffffff16815260200186815260200185815260200184815260200183815260200160065489018152602001828152602001600081526020016000600781111561185657fe5b8152602001600073ffffffffffffffffffffffffffffffffffffffff168152602001600073ffffffffffffffffffffffffffffffffffffffff168152602001600073ffffffffffffffffffffffffffffffffffffffff1681525060076000898152602001908152602001600020600082015181600001556020820151816001015560408201518160020160006101000a81548173ffffffffffffffffffffffffffffffffffffffff021916908373ffffffffffffffffffffffffffffffffffffffff16021790555060608201518160030160006101000a81548173ffffffffffffffffffffffffffffffffffffffff021916908373ffffffffffffffffffffffffffffffffffffffff16021790555060808201518160040190805190602001906119819291906127aa565b5060a082015181600501908051906020019061199e9291906127aa565b5060c08201518160060190805190602001906119bb9291906127aa565b5060e08201518160070190805190602001906119d89291906127aa565b506101008201518160080155610120820151816009019080519060200190611a019291906127aa565b5061014082015181600a015561016082015181600b0160006101000a81548160ff02191690836007811115611a3257fe5b021790555061018082015181600b0160016101000a81548173ffffffffffffffffffffffffffffffffffffffff021916908373ffffffffffffffffffffffffffffffffffffffff1602179055506101a082015181600c0160006101000a81548173ffffffffffffffffffffffffffffffffffffffff021916908373ffffffffffffffffffffffffffffffffffffffff1602179055506101c082015181600d0160006101000a81548173ffffffffffffffffffffffffffffffffffffffff021916908373ffffffffffffffffffffffffffffffffffffffff1602179055509050506001600654016006819055507f8e55ccfc9778ff8eba1646d765cf1982537ce0f9257054a17b48aad745250183876040518082815260200191505060405180910390a150505050505050565b8060066007811115611b6c57fe5b60076000838152602001908152602001600020600b0160009054906101000a900460ff166007811115611b9b57fe5b141515611ba757600080fd5b336007600084815260200190815260200160002060020160006101000a81548173ffffffffffffffffffffffffffffffffffffffff021916908373ffffffffffffffffffffffffffffffffffffffff1602179055503360076000848152602001908152602001600020600d0160006101000a81548173ffffffffffffffffffffffffffffffffffffffff021916908373ffffffffffffffffffffffffffffffffffffffff1602179055506007806000848152602001908152602001600020600b0160006101000a81548160ff02191690836007811115611c8357fe5b02179055507f653d56639fee6b566a5c804764e9689de38645f0b733df89a36a1b7b42173dd8826040518082815260200191505060405180910390a15050565b611ccc33612500565b565b8060036007811115611cdc57fe5b60076000838152602001908152602001600020600b0160009054906101000a900460ff166007811115611d0b57fe5b141515611d1757600080fd5b34803410151515611d2757600080fd5b8260008060076000848152602001908152602001600020600a01549150813403905060076000848152602001908152602001600020600d0160009054906101000a900473ffffffffffffffffffffffffffffffffffffffff1673ffffffffffffffffffffffffffffffffffffffff166108fc829081150290604051600060405180830381858888f19350505050158015611dc5573d6000803e3d6000fd5b50336007600088815260200190815260200160002060020160006101000a81548173ffffffffffffffffffffffffffffffffffffffff021916908373ffffffffffffffffffffffffffffffffffffffff1602179055503360076000888152602001908152602001600020600b0160016101000a81548173ffffffffffffffffffffffffffffffffffffffff021916908373ffffffffffffffffffffffffffffffffffffffff160217905550600460076000888152602001908152602001600020600b0160006101000a81548160ff02191690836007811115611ea357fe5b02179055506007600087815260200190815260200160002060030160009054906101000a900473ffffffffffffffffffffffffffffffffffffffff1673ffffffffffffffffffffffffffffffffffffffff166108fc60076000898152602001908152602001600020600a01549081150290604051600060405180830381858888f19350505050158015611f3a573d6000803e3d6000fd5b507f92f64ca637d023f354075a4be751b169c1a8a9ccb6d33cdd0cb3520543995727866040518082815260200191505060405180910390a1505050505050565b611f82611590565b73ffffffffffffffffffffffffffffffffffffffff163373ffffffffffffffffffffffffffffffffffffffff16141515611fbb57600080fd5b611fc481612551565b50565b8060016007811115611fd557fe5b60076000838152602001908152602001600020600b0160009054906101000a900460ff16600781111561200457fe5b14151561201057600080fd5b6007600083815260200190815260200160002060030160009054906101000a900473ffffffffffffffffffffffffffffffffffffffff168073ffffffffffffffffffffffffffffffffffffffff163373ffffffffffffffffffffffffffffffffffffffff1614151561208157600080fd5b600260076000858152602001908152602001600020600b0160006101000a81548160ff021916908360078111156120b457fe5b02179055507f9b3b66e2380b690bae22c73ef1428fb0c91e72fe14a4b6defa13035214187aff836040518082815260200191505060405180910390a1505050565b806004600781111561210357fe5b60076000838152602001908152602001600020600b0160009054906101000a900460ff16600781111561213257fe5b14151561213e57600080fd5b60076000838152602001908152602001600020600b0160019054906101000a900473ffffffffffffffffffffffffffffffffffffffff168073ffffffffffffffffffffffffffffffffffffffff163373ffffffffffffffffffffffffffffffffffffffff161415156121af57600080fd5b600560076000858152602001908152602001600020600b0160006101000a81548160ff021916908360078111156121e257fe5b02179055507ff00b9a5725b80c54016f42114f6ed7792d22eecb116011c4afac29c57bef6c95836040518082815260200191505060405180910390a1505050565b61222e60018261264b565b8073ffffffffffffffffffffffffffffffffffffffff167f28b26e7a3d20aedbc5f8f2ebf7da671c0491723a2b78f47a097b0e46dee0714260405160405180910390a250565b60008073ffffffffffffffffffffffffffffffffffffffff168273ffffffffffffffffffffffffffffffffffffffff16141515156122b157600080fd5b8260000160008373ffffffffffffffffffffffffffffffffffffffff1673ffffffffffffffffffffffffffffffffffffffff16815260200190815260200160002060009054906101000a900460ff16905092915050565b6123136001826126fb565b8073ffffffffffffffffffffffffffffffffffffffff167fe3f5ed5f263f1f01764a96edfc7d025f511ec5f7d180e8816908b78bcf74f09860405160405180910390a250565b6123646003826126fb565b8073ffffffffffffffffffffffffffffffffffffffff167f126174f6cf49c81cdb4a9214c6b8f037bef55b4ec31e4fc776cea2a1c8a88d5960405160405180910390a250565b6123b560038261264b565b8073ffffffffffffffffffffffffffffffffffffffff167fddbf200aa634dc3fb81cfd68583dd1040d1c751d335e1d86b631bde3e977fea860405160405180910390a250565b61240f81600461264b90919063ffffffff16565b8073ffffffffffffffffffffffffffffffffffffffff167f2e0ded4123377a3c2bc9a26f1717655a129e2f20752924d42e730ec89c83dbd060405160405180910390a250565b6124698160046126fb90919063ffffffff16565b8073ffffffffffffffffffffffffffffffffffffffff167fa5e0f060af304ab17dd418c7927e3da3ae7868189bf387aee09ab179ccc572f260405160405180910390a250565b6124ba60028261264b565b8073ffffffffffffffffffffffffffffffffffffffff167f71ae26cad02663e3d92efd6ec56031a80d74a20c0ab4183faa8bf262261c9baa60405160405180910390a250565b61250b6002826126fb565b8073ffffffffffffffffffffffffffffffffffffffff167fdb7176e79cffef81cb01767dd0447a0b24bb72ca9778d4b245581086b2a7e6db60405160405180910390a250565b600073ffffffffffffffffffffffffffffffffffffffff168173ffffffffffffffffffffffffffffffffffffffff161415151561258d57600080fd5b8073ffffffffffffffffffffffffffffffffffffffff166000809054906101000a900473ffffffffffffffffffffffffffffffffffffffff1673ffffffffffffffffffffffffffffffffffffffff167f5c486528ec3e3f0ea91181cff8116f02bfa350e03b8b6f12e00765adbb5af85c60405160405180910390a3806000806101000a81548173ffffffffffffffffffffffffffffffffffffffff021916908373ffffffffffffffffffffffffffffffffffffffff16021790555050565b600073ffffffffffffffffffffffffffffffffffffffff168173ffffffffffffffffffffffffffffffffffffffff161415151561268757600080fd5b6126918282612274565b15151561269d57600080fd5b60018260000160008373ffffffffffffffffffffffffffffffffffffffff1673ffffffffffffffffffffffffffffffffffffffff16815260200190815260200160002060006101000a81548160ff0219169083151502179055505050565b600073ffffffffffffffffffffffffffffffffffffffff168173ffffffffffffffffffffffffffffffffffffffff161415151561273757600080fd5b6127418282612274565b151561274c57600080fd5b60008260000160008373ffffffffffffffffffffffffffffffffffffffff1673ffffffffffffffffffffffffffffffffffffffff16815260200190815260200160002060006101000a81548160ff0219169083151502179055505050565b828054600181600116156101000203166002900490600052602060002090601f016020900481019282601f106127eb57805160ff1916838001178555612819565b82800160010185558215612819579182015b828111156128185782518255916020019190600101906127fd565b5b509050612826919061282a565b5090565b61284c91905b80821115612848576000816000905550600101612830565b5090565b905600a165627a7a7230582067573e4fca06537cc379d6d4969ec6f239529db01d26df42f4313edfd23df0b70029",
  "source": "pragma solidity ^0.4.24;\r\n\r\nimport \"../coffeecore/Ownable.sol\";\r\nimport \"../coffeeaccesscontrol/ConsumerRole.sol\";\r\nimport \"../coffeeaccesscontrol/DistributorRole.sol\";\r\nimport \"../coffeeaccesscontrol/FarmerRole.sol\";\r\nimport \"../coffeeaccesscontrol/RetailerRole.sol\";\r\n\r\n\r\n// Define a contract 'Supplychain'\r\ncontract SupplyChain is Ownable, ConsumerRole, RetailerRole, DistributorRole, FarmerRole {\r\n\r\n    // Define 'owner'\r\n//    address owner;\r\n\r\n    // Define a variable called 'upc' for Universal Product Code (UPC)\r\n    uint  upc;\r\n\r\n    // Define a variable called 'sku' for Stock Keeping Unit (SKU)\r\n    uint  sku;\r\n\r\n    // Define a public mapping 'items' that maps the UPC to an Item.\r\n    mapping(uint => Item) items;\r\n\r\n    // Define a public mapping 'itemsHistory' that maps the UPC to an array of TxHash,\r\n    // that track its journey through the supply chain -- to be sent from DApp.\r\n    mapping(uint => string[]) itemsHistory;\r\n\r\n    // Define enum 'State' with the following values:\r\n    enum State\r\n    {\r\n        Harvested, // 0\r\n        Processed, // 1\r\n        Packed, // 2\r\n        ForSale, // 3\r\n        Sold, // 4\r\n        Shipped, // 5\r\n        Received, // 6\r\n        Purchased   // 7\r\n    }\r\n\r\n    State constant defaultState = State.Harvested;\r\n\r\n    // Define a struct 'Item' with the following fields:\r\n    struct Item {\r\n        uint sku;  // Stock Keeping Unit (SKU)\r\n        uint upc; // Universal Product Code (UPC), generated by the Farmer, goes on the package, can be verified by the Consumer\r\n        address ownerID;  // Metamask-Ethereum address of the current owner as the product moves through 8 stages\r\n        address originFarmerID; // Metamask-Ethereum address of the Farmer\r\n        string originFarmName; // Farmer Name\r\n        string originFarmInformation;  // Farmer Information\r\n        string originFarmLatitude; // Farm Latitude\r\n        string originFarmLongitude;  // Farm Longitude\r\n        uint productID;  // Product ID potentially a combination of upc + sku\r\n        string productNotes; // Product Notes\r\n        uint productPrice; // Product Price\r\n        State itemState;  // Product State as represented in the enum above\r\n        address distributorID;  // Metamask-Ethereum address of the Distributor\r\n        address retailerID; // Metamask-Ethereum address of the Retailer\r\n        address consumerID; // Metamask-Ethereum address of the Consumer\r\n    }\r\n\r\n    // Define 8 events with the same 8 state values and accept 'upc' as input argument\r\n    event Harvested(uint upc);\r\n    event Processed(uint upc);\r\n    event Packed(uint upc);\r\n    event ForSale(uint upc);\r\n    event Sold(uint upc);\r\n    event Shipped(uint upc);\r\n    event Received(uint upc);\r\n    event Purchased(uint upc);\r\n\r\n    // Define a modifer that checks to see if msg.sender == owner of the contract\r\n    modifier onlyOwner() {\r\n        require(msg.sender == owner());\r\n        _;\r\n    }\r\n\r\n    // Define a modifer that verifies the Caller\r\n    modifier verifyCaller (address _address) {\r\n        require(msg.sender == _address);\r\n        _;\r\n    }\r\n\r\n    // Define a modifier that checks if the paid amount is sufficient to cover the price\r\n    modifier paidEnough(uint _price) {\r\n        require(msg.value >= _price);\r\n        _;\r\n    }\r\n\r\n    // Define a modifier that checks the price and refunds the remaining balance\r\n    modifier checkValue(uint _upc) {\r\n        uint _price = items[_upc].productPrice;\r\n        uint amountToReturn = msg.value - _price;\r\n        items[_upc].consumerID.transfer(amountToReturn);\r\n        _;\r\n    }\r\n\r\n    // Define a modifier that checks if an item.state of a upc is Harvested\r\n    modifier harvested(uint _upc) {\r\n        require(items[_upc].itemState == State.Harvested);\r\n        _;\r\n    }\r\n\r\n    // Define a modifier that checks if an item.state of a upc is Processed\r\n    modifier processed(uint _upc) {\r\n        require(items[_upc].itemState == State.Processed);\r\n        _;\r\n    }\r\n\r\n    // Define a modifier that checks if an item.state of a upc is Packed\r\n    modifier packed(uint _upc) {\r\n        require(items[_upc].itemState == State.Packed);\r\n        _;\r\n    }\r\n\r\n    // Define a modifier that checks if an item.state of a upc is ForSale\r\n    modifier forSale(uint _upc) {\r\n        require(items[_upc].itemState == State.ForSale);\r\n        _;\r\n    }\r\n\r\n    // Define a modifier that checks if an item.state of a upc is Sold\r\n    modifier sold(uint _upc) {\r\n        require(items[_upc].itemState == State.Sold);\r\n        _;\r\n    }\r\n\r\n    // Define a modifier that checks if an item.state of a upc is Shipped\r\n    modifier shipped(uint _upc) {\r\n        require(items[_upc].itemState == State.Shipped);\r\n        _;\r\n    }\r\n\r\n    // Define a modifier that checks if an item.state of a upc is Received\r\n    modifier received(uint _upc) {\r\n        require(items[_upc].itemState == State.Received);\r\n        _;\r\n    }\r\n\r\n    // Define a modifier that checks if an item.state of a upc is Purchased\r\n    modifier purchased(uint _upc) {\r\n        require(items[_upc].itemState == State.Purchased);\r\n        _;\r\n    }\r\n\r\n    // In the constructor set 'owner' to the address that instantiated the contract\r\n    // and set 'sku' to 1\r\n    // and set 'upc' to 1\r\n    constructor() public payable {\r\n        sku = 1;\r\n        upc = 1;\r\n    }\r\n\r\n    // Define a function 'harvestItem' that allows a farmer to mark an item 'Harvested'\r\n    function harvestItem(uint _upc, address _originFarmerID, string _originFarmName, string _originFarmInformation, string _originFarmLatitude, string _originFarmLongitude, string _productNotes) public\r\n    {\r\n        // Add the new item as part of Harvest\r\n        items[_upc] = Item({\r\n        sku: sku,\r\n        upc: _upc,\r\n        ownerID: _originFarmerID,\r\n        originFarmerID: _originFarmerID,\r\n        originFarmName: _originFarmName,\r\n        originFarmInformation: _originFarmInformation,\r\n        originFarmLatitude: _originFarmLatitude,\r\n        originFarmLongitude: _originFarmLongitude,\r\n        productID: _upc + sku,\r\n        productNotes: _productNotes,\r\n        productPrice: 0,\r\n        itemState: defaultState,\r\n        distributorID: address(0),\r\n        retailerID: address(0),\r\n        consumerID: address(0)\r\n        });\r\n\r\n        // Increment sku\r\n        sku = sku + 1;\r\n\r\n        // Emit the appropriate event\r\n        emit Harvested(_upc);\r\n    }\r\n\r\n    // Define a function 'processtItem' that allows a farmer to mark an item 'Processed'\r\n    function processItem(uint _upc) public\r\n        // Call modifier to check if upc has passed previous supply chain stage\r\n    harvested(_upc)\r\n\r\n        // Call modifier to verify caller of this function\r\n    verifyCaller(items[_upc].originFarmerID)\r\n    {\r\n        // Update the appropriate fields\r\n        items[_upc].itemState = State.Processed;\r\n        // Emit the appropriate event\r\n        emit Processed(_upc);\r\n    }\r\n\r\n    // Define a function 'packItem' that allows a farmer to mark an item 'Packed'\r\n    function packItem(uint _upc) public\r\n        // Call modifier to check if upc has passed previous supply chain stage\r\n    processed(_upc)\r\n        // Call modifier to verify caller of this function\r\n    verifyCaller(items[_upc].originFarmerID)\r\n    {\r\n        // Update the appropriate fields\r\n        items[_upc].itemState = State.Packed;\r\n        // Emit the appropriate event\r\n        emit Packed(_upc);\r\n    }\r\n\r\n    // Define a function 'sellItem' that allows a farmer to mark an item 'ForSale'\r\n    function sellItem(uint _upc, uint _price) public\r\n        // Call modifier to check if upc has passed previous supply chain stage\r\n    packed(_upc)\r\n        // Call modifier to verify caller of this function\r\n    verifyCaller(items[_upc].originFarmerID)\r\n    {\r\n        // Update the appropriate fields\r\n        items[_upc].itemState = State.ForSale;\r\n        items[_upc].productPrice = _price;\r\n        // Emit the appropriate event\r\n        emit ForSale(_upc);\r\n    }\r\n\r\n    // Define a function 'buyItem' that allows the disributor to mark an item 'Sold'\r\n    // Use the above defined modifiers to check if the item is available for sale, if the buyer has paid enough,\r\n    // and any excess ether sent is refunded back to the buyer\r\n    function buyItem(uint _upc) public payable\r\n        // Call modifier to check if upc has passed previous supply chain stage\r\n    forSale(_upc)\r\n        // Call modifer to check if buyer has paid enough\r\n    paidEnough(msg.value)\r\n        // Call modifer to send any excess ether back to buyer\r\n    checkValue(_upc)\r\n    {\r\n        // Update the appropriate fields - ownerID, distributorID, itemState\r\n        items[_upc].ownerID = msg.sender;\r\n        items[_upc].distributorID = msg.sender;\r\n        items[_upc].itemState = State.Sold;\r\n\r\n        // Transfer money to farmer\r\n        items[_upc].originFarmerID.transfer(items[_upc].productPrice);\r\n        //items[_upc].transferOwnership(msg.sender);\r\n\r\n        // emit the appropriate event\r\n        emit Sold(_upc);\r\n    }\r\n\r\n    // Define a function 'shipItem' that allows the distributor to mark an item 'Shipped'\r\n    // Use the above modifers to check if the item is sold\r\n    function shipItem(uint _upc) public\r\n        // Call modifier to check if upc has passed previous supply chain stage\r\n    sold(_upc)\r\n        // Call modifier to verify caller of this function\r\n    verifyCaller(items[_upc].distributorID)\r\n    {\r\n        // Update the appropriate fields\r\n        items[_upc].itemState = State.Shipped;\r\n        // Emit the appropriate event\r\n        emit Shipped(_upc);\r\n    }\r\n\r\n    // Define a function 'receiveItem' that allows the retailer to mark an item 'Received'\r\n    // Use the above modifiers to check if the item is shipped\r\n    function receiveItem(uint _upc) public\r\n        // Call modifier to check if upc has passed previous supply chain stage\r\n    shipped(_upc)\r\n        // Access Control List enforced by calling Smart Contract / DApp\r\n    {\r\n        // Update the appropriate fields - ownerID, retailerID, itemState\r\n        items[_upc].ownerID = msg.sender;\r\n        items[_upc].retailerID = msg.sender;\r\n        items[_upc].itemState = State.Received;\r\n        // Emit the appropriate event\r\n        emit Received(_upc);\r\n    }\r\n\r\n    // Define a function 'purchaseItem' that allows the consumer to mark an item 'Purchased'\r\n    // Use the above modifiers to check if the item is received\r\n    function purchaseItem(uint _upc) public\r\n        // Call modifier to check if upc has passed previous supply chain stage\r\n    received(_upc)\r\n        // Access Control List enforced by calling Smart Contract / DApp\r\n    {\r\n        // Update the appropriate fields - ownerID, consumerID, itemState\r\n        items[_upc].ownerID = msg.sender;\r\n        items[_upc].consumerID = msg.sender;\r\n        items[_upc].itemState = State.Purchased;\r\n        // Emit the appropriate event\r\n        emit Purchased(_upc);\r\n    }\r\n\r\n    // Define a function 'fetchItemBufferOne' that fetches the data\r\n    function fetchItemBufferOne(uint _upc) public view returns\r\n    (\r\n        uint itemSKU,\r\n        uint itemUPC,\r\n        address ownerID,\r\n        address originFarmerID,\r\n        string originFarmName,\r\n        string originFarmInformation,\r\n        string originFarmLatitude,\r\n        string originFarmLongitude\r\n    )\r\n    {\r\n        // Assign values to the 8 parameters\r\n        itemSKU = items[_upc].sku;\r\n        itemUPC = items[_upc].upc;\r\n        ownerID = items[_upc].ownerID;\r\n        originFarmerID = items[_upc].originFarmerID;\r\n        originFarmName = items[_upc].originFarmName;\r\n        originFarmInformation = items[_upc].originFarmInformation;\r\n        originFarmLatitude = items[_upc].originFarmLatitude;\r\n        originFarmLongitude = items[_upc].originFarmLongitude;\r\n\r\n        return\r\n        (\r\n            itemSKU,\r\n            itemUPC,\r\n            ownerID,\r\n            originFarmerID,\r\n            originFarmName,\r\n            originFarmInformation,\r\n            originFarmLatitude,\r\n            originFarmLongitude\r\n        );\r\n    }\r\n\r\n    // Define a function 'fetchItemBufferTwo' that fetches the data\r\n    function fetchItemBufferTwo(uint _upc) public view returns\r\n    (\r\n        uint itemSKU,\r\n        uint itemUPC,\r\n        uint productID,\r\n        string productNotes,\r\n        uint productPrice,\r\n        uint itemState,\r\n        address distributorID,\r\n        address retailerID,\r\n        address consumerID\r\n    )\r\n    {\r\n        // Assign values to the 9 parameters\r\n        itemSKU = items[_upc].sku;\r\n        itemUPC = items[_upc].upc;\r\n        productID = items[_upc].productID;\r\n        productNotes = items[_upc].productNotes;\r\n        productPrice = items[_upc].productPrice;\r\n        itemState = uint(items[_upc].itemState);\r\n        distributorID = items[_upc].distributorID;\r\n        retailerID = items[_upc].retailerID;\r\n        consumerID = items[_upc].consumerID;\r\n\r\n\r\n        return\r\n        (\r\n        itemSKU,\r\n        itemUPC,\r\n        productID,\r\n        productNotes,\r\n        productPrice,\r\n        itemState,\r\n        distributorID,\r\n        retailerID,\r\n        consumerID\r\n        );\r\n    }\r\n}\r\n",
  "sourcePath": "C:\\Users\\danie\\Dev\\js\\Udacity Blockchain Nanodegree\\blockchain_architecture\\project-6\\contracts\\coffeebase\\SupplyChain.sol",
  "compiler": {
    "name": "solc",
    "version": "0.4.24+commit.e67f0147.Emscripten.clang"
  },
  "schemaVersion": "2.0.1",
  "updatedAt": "2022-12-05T19:27:37.963Z"
}